:100000000C9483000C94B4000C94B4000C94B400D1
:100010000C94B4000C94B4000C94B4000C94B40090
:100020000C94B4000C94B4000C94B4000C94B40080
:100030000C94B4000C94B4000C94B4000C94B40070
:100040000C94B4000C94B4000C94B4000C94B40060
:100050000C94B4000C94B4000C94B4000C949C0365
:100060000C94B4000C942F040C9405040C94B4006C
:100070000C94B4000C94B4000C94B4000C94B40030
:100080000C94B4000C94B4000C94B4000C94B40020
:100090000C94B4000C94B4000C94B4000C94B40010
:1000A0000C94B4000C94B4000C94B4000C94B40000
:1000B0000C94B4000C94B4000C94B4000C94B400F0
:1000C0000C94B4000C94B4000C94B4000C94B400E0
:1000D0000C94B4000C94B4000C94B4000C94B400D0
:1000E0000C94B4000C94FE030C94EC010C94780175
:1000F0000C94A9020C94F3020C940E020C940002CE
:100100000C94DB01FE0311241FBECFEFD1E2DEBF52
:10011000CDBF00E00CBF12E0A0E0B2E0EEE2F9E0FB
:1001200000E00BBF02C007900D92AC32B107D9F7C7
:1001300022E0ACE2B2E001C01D92A23DB207E1F7BD
:1001400010E0C3E8D0E000E006C021970109802F4D
:10015000FE010E948D04C238D10780E00807A9F78C
:100160000E94F7030C9495040C9400000895789471
:1001700084B5826084BD84B5816084BD85B58260AC
:1001800085BD85B5816085BDEEE6F0E0808181604A
:100190008083E1E8F0E0108280818260808380814A
:1001A00081608083E0E8F0E0808181608083E1EB22
:1001B000F0E0808184608083E0EBF0E0808181600A
:1001C0008083E1E9F0E080818260808380818160CA
:1001D0008083E0E9F0E0808181608083E1EAF0E003
:1001E000808182608083808181608083E0EAF0E0AA
:1001F000808181608083E1E2F1E0808182608083A0
:10020000808181608083E0E2F1E080818160808391
:10021000EAE7F0E08081846080838081826080836F
:100220008081816080838081806880831092C1009A
:1002300008953FB7F8948091CE029091CF02A0919B
:10024000D002B091D10226B5A89B05C02F3F19F06E
:100250000196A11DB11D3FBFBA2FA92F982F882746
:10026000BC01CD01620F711D811D911D660F771FAD
:10027000881F991F660F771F881F991F08958F92F7
:100280009F92AF92BF92CF92DF92EF92FF926B015B
:100290007C010E9419014B015C011BC021E0C21AC4
:1002A000D108E108F10888EE880E83E0981EA11CB1
:1002B000B11CC114D104E104F10459F00E941901E8
:1002C000681979098A099B09683E7340810591057F
:1002D00028F7C114D104E104F10459F7FF90EF901D
:1002E000DF90CF90BF90AF909F908F90089508952A
:1002F000CF92DF92EF92FF920F931F93CF93DF93F2
:100300008C01DB01D0E0C0E07A0181E0E81AF1085D
:10031000452BA1F0F80180819181FC012081318180
:100320006D01FFEFCF1ADF0A6C91C801F901199531
:10033000892B21F02196A701D601E6CFCE01DF91CE
:10034000CF911F910F91FF90EF90DF90CF90089584
:10035000019709F008956F3F7F4FE1F7ECE2F2E07B
:100360001382128288EE93E0A0E0B0E0848395834C
:10037000A683B78384E092E09183808385EC90E04C
:100380009587848784EC90E09787868780EC90E05F
:10039000918B808B81EC90E0938B828B82EC90E050
:1003A000958B848B86EC90E0978B868B118E128ECA
:1003B000138E148ECFCFFC01938D848D981720F46B
:1003C000891B990B019708952FE330E0291B310910
:1003D000820F932F911D0895FC01918D828D9817A6
:1003E00061F0A28DAE0FBF2FB11D5D968C91928DE5
:1003F0009F5F9F73928F90E008958FEF9FEF089516
:10040000FC01918D828D981731F0828DE80FF11DDE
:10041000858D90E008958FEF9FEF0895FC01218D69
:1004200030E0205C3F4F828DA901481B5109CA0171
:100430008F73992708958CE292E00E940E0221E0CA
:10044000892B09F420E0822F0895CF92DF92EF925A
:10045000FF921F93CF93DF93EC016A017B01122F70
:1004600060E079E08DE390E0A70196010E946B04C3
:1004700021503109410951095695479537952795DE
:10048000E889F98982E08083C11481EED806E1040D
:10049000F10421F0211580E1380798F0E889F98905
:1004A000108260E874E88EE190E0A70196010E9456
:1004B0006B042150310941095109569547953795EB
:1004C0002795EC85FD853083EE85FF852083188E8A
:1004D000EC89FD891083EA89FB89808180618083B2
:1004E000EA89FB89808188608083EA89FB89808131
:1004F00080688083EA89FB8980818F7D8083DF919A
:10050000CF911F91FF90EF90DF90CF900895FC0165
:10051000A48DA80FB92FB11DA35ABF4F2C91848D64
:1005200090E001968F739078848FA689B7892C9379
:10053000A089B1898C91837080648C93938D848D14
:10054000981308950288F389E02D80818F7D808340
:10055000F8CF0F931F93CF93DF93EC0181E0888F47
:100560009B8D8C8D9817B1F0062F8B8D90E00196A6
:100570008F739078182F8C8D81131EC00FB607FCD7
:10058000FACFE889F989808185FFF5CFCE010E94F5
:100590008702F1CFE889F989808185FFE5CF9FB790
:1005A000F894EE89FF896083E889F98980818370F6
:1005B000806480839FBF10C0EB8DEC0FFD2FF11D79
:1005C000E35AFF4F00839FB7F8941B8FEA89FB899A
:1005D0008081806280839FBF81E090E0DF91CF9136
:1005E0001F910F910895CF93DF93EC01888D8111B6
:1005F00004C00DC00FB607FE0DC0EA89FB898081DB
:1006000085FDF8CFA889B9898C9186FFF3CFDF915A
:10061000CF910895808185FFF0CFE889F9898081A5
:1006200085FFEBCFCE010E948702E7CF80E090E00C
:10063000892B21F00E941B02811125C080E090E0EF
:10064000892B41F080E090E0892B21F00E9400008E
:1006500081111CC080E090E0892B41F080E090E0A7
:10066000892B21F00E940000811113C080E090E0EE
:10067000892B41F080E090E0892B21F00E9400005E
:1006800081110AC008950E940000D8CF0E94000086
:10069000E1CF0E940000EACF0E940000F3CF08954E
:1006A0006115710581F0FB0101900020E9F7319798
:1006B000AF01461B570BDC01ED91FC910280F381E9
:1006C000E02D1995089590E080E0089562E172E0D0
:1006D0000E94500308950E94500308950F931F93A2
:1006E000CF93DF93EC010E946B038C01CE010E943B
:1006F0006603800F911FDF91CF911F910F91089595
:1007000064E670E080E090E00E943F0126E040E077
:1007100052EC61E070E08CE292E00E94250264E617
:1007200070E080E090E00E943F0165E172E08CE2C1
:1007300092E00E946E0308951F920F920FB60F92DF
:1007400011240F931F932F933F934F935F936F93B6
:100750007F938F939F93AF93BF930091CA021091A1
:10076000CB022091CC023091CD029091C902B90107
:10077000A8014F5F5F4F6F4F7F4F83E0890F8D3729
:1007800040F086E8890FB901A8014E5F5F4F6F4FB7
:100790007F4F8093C9024093CA025093CB0260936B
:1007A000CC027093CD028091CE029091CF02A091A5
:1007B000D002B091D1020196A11DB11D8093CE024D
:1007C0009093CF02A093D002B093D102BF91AF918A
:1007D0009F918F917F916F915F914F913F912F9159
:1007E0001F910F910F900FBE0F901F9018950E94B0
:1007F000B7000E9480030E941603FDCF6FEF7FEFCA
:1008000081E090E00E94A80108951F920F920FB618
:100810000F9211240BB60F922F933F934F935F9338
:100820006F937F938F939F93AF93BF93EF93FF93B8
:100830008CE292E00E948702FF91EF91BF91AF910D
:100840009F918F917F916F915F914F913F912F91E8
:100850000F900BBE0F900FBE0F901F9018951F9218
:100860000F920FB60F9211240BB60F922F938F9306
:100870009F93AF93BF93EF93FF93E0913C02F0916E
:100880003D02808182FD14C0ECE2F2E0A689B789C6
:100890002C91818D8F5F8F73928D891771F0DF019D
:1008A000E18DF0E0E45DFD4F258F59968C9305C0F6
:1008B000E0914202F09143028081FF91EF91BF915C
:1008C000AF919F918F912F910F900BBE0F900FBE04
:1008D0000F901F901895A1E21A2EAA1BBB1BFD01B9
:1008E0000DC0AA1FBB1FEE1FFF1FA217B307E4070F
:1008F000F50720F0A21BB30BE40BF50B661F771F67
:10090000881F991F1A9469F7609570958095909546
:100910009B01AC01BD01CF010895EE0FFF1F881FA1
:0E0920008BBF0790F691E02D1994F894FFCF4D
:10092E0000000000A9027801DB01F3020E02EC01C7
:10093E0000020D0A0048656C6C6F20776F726C6454
:0C094E00205665722E302E302E32000034
:00000001FF